:100000000C9415010C9436010C9436010C943601B5
:100010000C9436010C9436010C9436010C94360184
:100020000C9436010C9436010C9436010C94360174
:100030000C9436010C9436010C9436010C94360164
:100040000C9436010C9436010C9436010C94360154
:100050000C9436010C9436010C9436010C94360144
:100060000C9436010C9436010C9436010C94360134
:100070000C9436010C9436010C9436010C94360124
:100080000C9436010C9436010C9436010C94360114
:100090000C9436010C9436010C9436010C94360104
:1000A0000C9436010C9436010C9436010C943601F4
:1000B0000C9436010C9436010C9436010C943601E4
:1000C0000C9436010C9436010C9436010C943601D4
:1000D0000C9436010C9436010C9436010C943601C4
:1000E0000C9436010C9436010C9436010C943601B4
:1000F0000C9436010C9436010C9436010C943601A4
:100100000C9436010C9436010C9436010C94360193
:100110000C9436010C9436010C9436010C94360183
:100120000C9436010C9436010C9436010C94360173
:100130000C9436010C9436010C9436010C94360163
:100140000C9436010C9436010C9436010C94360153
:100150000C9436010C9436010C9436010C94360143
:100160000C9436010C9436010C9436010C94360133
:100170000C9436010C9436010C9436010C94360123
:100180000C9436010C9436010C9436010C94360113
:100190000C9436010C9436010C9436010C94360103
:1001A0000C9436010C9436010C9436010C943601F3
:1001B0000C9436010C9436010C9436010C943601E3
:1001C0000C9436010C9436010C9436010C943601D3
:1001D0000C9436010C9436010C9436010C943601C3
:1001E0000C9436010C9436010C9436010C943601B3
:1001F0000C9436010C9436010C943601084AD73B16
:100200003BCE016E84BCBFFDC12F3D6C74319ABDE5
:1002100056833DDA3D00C77F11BED9E4BB4C3E9109
:100220006BAAAABE000000803F0011241FBECFEFC2
:10023000DFE5DEBFCDBF00E00CBF10E2A0E0B0E222
:10024000EEEAF9E000E00BBF02C007900D92A43087
:10025000B107D9F710E2A4E0B0E201C01D92A630C8
:10026000B107E1F70E94D4010C94D5040C9400006E
:100270004F925F926F927F928F929F92AF92BF92B6
:10028000CF92DF92EF92FF920F931F93CF93DF9362
:100290003C01FC014080518002811381C481D581E1
:1002A000B80180E090E00E94F7026B017C01BE0182
:1002B00080E090E00E94F7029B01AC01C701B6010B
:1002C0000E943E028090002090900120A090022089
:1002D000B0900320A50194010E94B103DC01CB0181
:1002E000F30186839783A087B187CC9FC001CD9F00
:1002F000900DDC9F900D1124009FB001019F700DA7
:10030000109F700D1124680F791F80E090E00E940B
:10031000F7020E9418046B017C0166277727641995
:10032000750980E090E00E94F702A70196010E9403
:100330003E029B01AC01C501B4010E94B103DC0186
:10034000CB01F30182879387A487B587DF91CF9193
:100350001F910F91FF90EF90DF90CF90BF90AF90E3
:100360009F908F907F906F905F904F900895E0EAFC
:10037000F6E040852091042030910520220F331FA4
:10038000306E81E090E041FF02C080E090E0282BD9
:10039000392B209304203093052081E090EF20300A
:1003A000390709F080E008950E94F60180E060E0DE
:1003B00070E00E940A02C1E0D1E00E94B7018823E8
:1003C00071F0CC2331F080E068EE73E00E940A0205
:1003D00005C080E060E070E00E940A02CD278FE057
:1003E00097E20197F1F700C00000E7CFE0E4F6E004
:1003F00080818F608083E0E0F8E081E0808381810C
:10040000836081838181806F818380E49CE986A3FE
:1004100097A3089593E0693E790700F568517C4FF2
:10042000660F771F813061F0813028F0823069F0EB
:100430008330A1F40FC0E0E0F8E060A771A7089551
:10044000E0E0F8E062A773A70895E0E0F8E064A7B1
:1004500075A70895E0E0F8E066A777A7089532D180
:1004600058F080E891E009F49EEF33D128F040E89D
:1004700051E059F45EEF09C0FDC065C1E92FE07895
:1004800040D168F3092E052AC1F32617370748071C
:10049000590738F00E2E07F8E02569F0E025E064F2
:1004A0000AC0EF6307F8009407FADB01B9019D0168
:1004B000DC01CA01AD01EF9341D012D10AD05F91A6
:1004C000552331F02BED3FE049E450FD49ECF2C1FA
:1004D0000895DF93DD27B92FBF7740E85FE3161655
:1004E000170648075B0710F4D92F34D19F938F93D9
:1004F0007F936F93DBD1ECEFF1E0BFD0F1D02F9180
:100500003F914F915F9139D1DD2349F09058A2EA94
:100510002AED3FE049EC5FE3D0785D27DCD1DF9145
:10052000DFC0D7D040F0CED030F021F45F3F19F0DB
:100530009BC0511109C19EC0E4D098F39923C9F31F
:100540005523B1F3951B550BBB27AA2762177307D9
:10055000840738F09F5F5F4F220F331F441FAA1F8D
:10056000A9F333D00E2E3AF0E0E830D0915050404D
:10057000E695001CCAF729D0FE2F27D0660F771FFB
:10058000881FBB1F261737074807AB07B0E809F0DD
:10059000BB0B802DBF01FF2793585F4F2AF09E3F72
:1005A000510568F061C0D0C05F3FECF3983EDCF3CA
:1005B000869577956795B795F7959F5FC9F7880FEB
:1005C000911D9695879597F90895E1E0660F771F3D
:1005D000881FBB1F621773078407BA0720F0621BCE
:1005E000730B840BBA0BEE1F88F7E0950895E8941F
:1005F00009C097FB3EF490958095709561957F4F6B
:100600008F4F9F4F9923A9F0F92F96E9BB27939518
:10061000F695879577956795B795F111F8CFFAF428
:10062000BB0F11F460FF1BC06F5F7F4F8F4F9F4F59
:1006300016C0882311F096E911C0772321F09EE8B7
:10064000872F762F05C0662371F096E8862F70E01D
:1006500060E02AF09A95660F771F881FDAF7880FF7
:100660009695879597F9089597F99F6780E870E0C8
:1006700060E008959FEF80EC0895DF93CF931F9380
:100680000F93FF92EF92DF927B018C01689405C07B
:10069000DA2EEF0172D0FE01E894A59125913591F3
:1006A00045915591AEF3EF0116D1FE019701A801D6
:1006B000DA9479F7DF90EF90FF900F911F91CF912F
:1006C000DF91089500240A941616170618060906E5
:1006D000089500240A9412161306140605060895B8
:1006E000092E0394000C11F4882352F0BB0F40F440
:1006F000BF2B11F460FF04C06F5F7F4F8F4F9F4F80
:10070000089557FD9058440F551F59F05F3F71F001
:100710004795880F97FB991F61F09F3F79F0879568
:100720000895121613061406551FF2CF4695F1DFF1
:1007300008C0161617061806991FF1CF8695710581
:10074000610508940895E894BB2766277727CB01B5
:1007500097F908959B01AC0160E070E080E89FE3A9
:100760000DC10BD0BDCFAEDF28F0B3DF18F095235D
:1007700009F07ACF7FCF1124E7CFC3DFA0F3959F95
:10078000D1F3950F50E0551F629FF001729FBB2778
:10079000F00DB11D639FAA27F00DB11DAA1F649F24
:1007A0006627B00DA11D661F829F2227B00DA11DD7
:1007B000621F739FB00DA11D621F839FA00D611D5D
:1007C000221F749F3327A00D611D231F849F600D7E
:1007D000211D822F762F6A2F11249F5750408AF0B7
:1007E000E1F088234AF0EE0FFF1FBB1F661F771F43
:1007F000881F91505040A9F79E3F510570F034CFAB
:10080000A3CF5F3FECF3983EDCF386957795679531
:10081000B795F795E7959F5FC1F7FE2B880F911D60
:100820009695879597F9089511F40EF423CFA8C0F3
:1008300070DFD0F39923D9F3CEF39F57550B87FF81
:10084000ADD00024A0E640EA9001805856959795D7
:1008500028F4805C660F771F881F20F02617370763
:10086000480730F4621B730B840B202931294A2B73
:10087000A69517940794202531254A2758F7660F27
:10088000771F881F20F026173707480730F4620BC0
:10089000730B840B200D311D411DA09581F7B9010B
:1008A000842F9158880F9695879508959B01AC01E8
:1008B00058CF5058BB27AA270ED012CF03DF30F0F5
:1008C00008DF20F031F49F3F11F41EF4D3CE0EF474
:1008D000E095E7FBC9CEE92F14DF80F3BA17620772
:1008E00073078407950718F071F49EF52CCF0EF46A
:1008F000E0950B2EBA2FA02D0B01B90190010C0130
:10090000CA01A0011124FF27591B99F0593F50F447
:10091000503E68F11A16F040A22F232F342F44279F
:10092000585FF3CF469537952795A795F040539597
:10093000C9F77EF41F16BA0B620B730B840BBAF067
:100940009150A1F0FF0FBB1F661F771F881FC2F7D2
:100950000EC0BA0F621F731F841F48F487957795E6
:100960006795B795F7959E3F08F0B3CF9395880F9D
:1009700008F09927EE0F979587950895DDDDB0CEA5
:100980009F3F31F0915020F4879577956795B79503
:10099000880F911D9695879597F90895915050402D
:0E09A000660F771F881FD2F70895F894FFCFD7
:0409AE00E02E654290
:00000001FF
