:10000000FDC000001AC1000018C1000016C10000A8
:1000100014C1000012C1000010C100000EC1000098
:100020000CC100000AC1000008C1000006C10000A8
:1000300004C100006CC2000000C10000FEC000004E
:10004000FCC00000FAC00000F8C00000F6C00000CC
:10005000F4C00000F2C00000F0C00000EEC00000DC
:10006000ECC00000EAC00000E8C00000E6C00000EC
:10007000E4C00000E2C00000E0C00000DEC00000FC
:10008000DCC00000DAC00000D8C00000D6C000000C
:10009000D4C00000D2C00000D0C00000CEC000001C
:1000A000CCC00000CAC00000C8C00000C6C000002C
:1000B000C4C00000C2C0000051C20000BEC00000A9
:1000C000BCC00000BAC00000B8C00000B6C000004C
:1000D000B4C00000B2C00000B0C00000AEC000005C
:1000E000ACC00000AAC00000A8C00000A6C000006C
:1000F000A4C00000A2C00000A0C000009EC000007C
:100100009CC000009AC0000098C0000096C000008B
:1001100094C0000092C0000090C000008EC000009B
:100120008CC000008AC0000088C0000086C00000AB
:1001300084C0000082C0000080C000007EC00000BB
:100140007CC000007AC0000078C0000076C00000CB
:1001500074C0000072C0000070C000006EC00000DB
:100160006CC000006AC0000068C0000066C00000EB
:1001700064C0000062C0000060C000005EC00000FB
:100180005CC000005AC0000058C0000056C000000B
:1001900054C0000052C0000050C000004EC000001B
:1001A0004CC000004AC0000048C0000046C000002B
:1001B00044C0000042C0000040C000003EC000003B
:1001C0003CC000003AC0000038C0000036C000004B
:1001D00034C0000032C0000030C000002EC000005B
:1001E0002CC000002AC0000028C0000026C000006B
:1001F00024C0000022C0000020C0000011241FBE47
:10020000CFEFDFE5DEBFCDBF00E00CBF10E2A0E026
:10021000B0E2EAEBF6E000E00BBF02C007900D92FF
:10022000AA30B107D9F710E2AAE0B0E201C01D92EE
:10023000A631B107E1F731D23EC2E2CE2FB7F89432
:10024000FC01E059FF4F60958081682360832FBFD8
:100250000895CF93DF93EC01DA01FC01709620E062
:1002600030E0462F50E0CA01022E02C095958795D6
:100270000A94E2F780FDA0832F5F3F4F319628302C
:10028000310589F7A0FF07C0B1FF02C06D8301C02F
:100290006E83698301C06A83DF91CF91089580EEF8
:1002A00097E061E041E052E0D4DF80EE97E062E069
:1002B00041E052E0CEDF80E696E060E141E052E0CE
:1002C000C8DF80E696E060E241E450E0C2DF80E80B
:1002D00096E060E24BE150E0BCDF80E696E062E051
:1002E00041E052E0B6DF80E696E068E041E052E0AF
:1002F000B0DF80EA96E068E041E052E0AADF80E605
:1003000096E061E041E052E0A4DF80E096E068E042
:1003100041E052E09EDF80E896E060E141E050E09D
:1003200098DF80E696E062E041E052E092DF80E60E
:1003300096E068E041E052E08CDF80E696E064E021
:1003400040E050E086DF80EA96E060E141E052E084
:1003500080DF80E096E061E040E050E07ADF80E01E
:1003600096E064E040E050E074DF80E296E062E016
:1003700040E050E06EDF80E496E068E041E052E06B
:1003800068DF80E496E064E040E050E062DF80E611
:1003900096E068E041E052E05CDF80E696E064E0F1
:1003A00040E050E056DF80E896E068E041E052E04F
:1003B00050DF80E896E064E040E050E04ACFCF9321
:1003C000DF93E0910A20F0910B204481842F90E08C
:1003D00043FF0BC04860448383E0838386EF9FEF35
:1003E00080931420909315208FC09C01247130704D
:1003F0002115310549F083E083838FEF9FEF8093D0
:1004000014209093152080C046FF45C0A0910C2079
:10041000B0910D2020910E2030910F2014968D91D7
:100420009C911597281739076CF4A20FB31F1196EA
:100430008C91119787832F5F3F4F20930E2030932D
:100440000F2062C0209110203091112018968D91BC
:100450009C91199728173907B8F4809112208823A6
:1004600021F08681816086834FC016960D90BC91E5
:10047000A02DA20FB31F8C9187832F5F3F4F209336
:1004800010203093112040C083E083831092142009
:100490001092152039C044238CF5C0910C20D091C6
:1004A0000D202091102030911120888599852817E2
:1004B0003907D8F48781AE81BF81A20FB31F8C9317
:1004C0002F5F3F4F2093102030931120888599850E
:1004D0002817390718F482E0838316C087E08383E6
:1004E00010921420109215200FC083E0838389EFAF
:1004F0009FEF809314209093152006C08BEF9FEF01
:100500008093142090931520DF91CF9108951F922E
:100510000F920FB60F920BB60F9211242F933F93A9
:100520004F935F936F937F938F939F93AF93BF93FB
:10053000EF93FF9344DFFF91EF91BF91AF919F91B4
:100540008F917F916F915F914F913F912F910F907C
:100550000BBE0F900FBE0F901F9018951F920F9219
:100560000FB60F920BB60F9211242F933F934F9318
:100570005F936F937F938F939F93AF93BF93EF930B
:10058000FF931DDFFF91EF91BF91AF919F918F91ED
:100590007F916F915F914F913F912F910F900BBE83
:1005A0000F900FBE0F901F901895FC01DB01149661
:1005B0008C911497858388EB818381E084831092EA
:1005C00013201092142010921520E0EAF0E08281AE
:1005D00082608283789480E090E008953EC0089520
:1005E000E0E4F6E080818F608083E0E0F8E081E085
:1005F00080838181836081838181806F818380E4B6
:100600009CE986A397A3089523E0693E720720F52D
:1006100068517C4F660F771F8130910579F08130EA
:10062000910538F08230910571F083309105A1F485
:100630000FC0E0E0F8E060A771A70895E0E0F8E0FF
:1006400062A773A70895E0E0F8E064A775A708958E
:10065000E0E0F8E066A777A70895E0E8F6E088E331
:10066000808B818B8FE090E0A0E0B0E0809304204D
:1006700090930520A0930620B093072085E090E09A
:1006800060E4DCDD80EA94E060E070E28EDFE0EAC6
:10069000F4E0818188608183089501DEA1DF80E03C
:1006A00090E060E070E0B0DF99DF87E0E0EAF0E042
:0A06B00082837894FFCFF894FFCF07
:0A06BA0050C30000000000005000D3
:00000001FF
