S0100000696D755F746573742E73726563AA
S1130000FDC000001AC1000018C1000016C10000A4
S113001014C1000012C1000010C100000EC1000094
S11300200CC100000AC1000008C1000006C10000A4
S113003004C100009AC1000000C10000FEC000001D
S1130040FCC00000FAC00000F8C00000F6C00000C8
S1130050F4C00000F2C00000F0C00000EEC00000D8
S1130060ECC00000EAC00000E8C00000E6C00000E8
S1130070E4C00000E2C00000E0C00000DEC00000F8
S1130080DCC00000DAC00000D8C00000D6C0000008
S1130090D4C00000D2C00000D0C00000CEC0000018
S11300A0CCC00000CAC00000C8C00000C6C0000028
S11300B0C4C00000C2C000007FC10000BEC0000078
S11300C0BCC00000BAC00000B8C00000B6C0000048
S11300D0B4C00000B2C00000B0C00000AEC0000058
S11300E0ACC00000AAC00000A8C00000A6C0000068
S11300F0A4C00000A2C00000A0C000009EC0000078
S11301009CC000009AC0000098C0000096C0000087
S113011094C0000092C0000090C000008EC0000097
S11301208CC000008AC0000088C0000086C00000A7
S113013084C0000082C0000080C000007EC00000B7
S11301407CC000007AC0000078C0000076C00000C7
S113015074C0000072C0000070C000006EC00000D7
S11301606CC000006AC0000068C0000066C00000E7
S113017064C0000062C0000060C000005EC00000F7
S11301805CC000005AC0000058C0000056C0000007
S113019054C0000052C0000050C000004EC0000017
S11301A04CC000004AC0000048C0000046C0000027
S11301B044C0000042C0000040C000003EC0000037
S11301C03CC000003AC0000038C0000036C0000047
S11301D034C0000032C0000030C000002EC0000057
S11301E02CC000002AC0000028C0000026C0000067
S11301F024C0000022C0000020C0000011241FBE43
S1130200CFEFCDBFDFE5DEBF00E00CBF10E2A0E022
S1130210B0E2ECE9F5E000E00BBF02C007900D92FC
S1130220A030B107D9F720E2A0E0B0E201C01D92EE
S1130230AB30B207E1F7ACD1AFC1E2CECF93DF93DD
S1130240E0910020F0910120848183FF08C0886040
S1130250848383E0838386EF80930A2083C0982F6E
S1130260947131F083E083838FEF80930A207AC006
S113027086FF43C0C0E0D0E2AA81BB818C819D810E
S113028014962D913C911597821793076CF49C0159
S11302902F5F3F4F2093042030930520A80FB91FF0
S11302A011968C9187835EC08091062090910720DF
S11302B018962D913C91199782179307C8F42091B1
S11302C00820222321F08681816086834BC0169604
S11302D02D913C911797AC014F5F5F4F40930620DF
S11302E050930720D901A80FB91F8C9187833AC076
S11302F083E0838310920A2035C0882384F5A0E02C
S1130300B0E21296CD91DC91139716968D919C9143
S113031017972885398582179307D8F46E817F81D2
S11303209C012F5F3F4F2093062030930720478185
S1130330DB01A80FB91F4C938885998528173907C5
S113034018F482E083830EC087E0838310920A202E
S113035009C083E0838389EF80930A2003C08BEF75
S113036080930A20DF91CF9108951F920F920FB6C8
S11303700F9211240BB60F922F933F934F935F93D9
S11303806F937F938F939F93AF93BF93EF93FF9359
S113039055DFFF91EF91BF91AF919F918F917F9125
S11303A06F915F914F913F912F910F900BBE0F90E2
S11303B00FBE0F901F9018951F920F920FB60F92B9
S11303C011240BB60F922F933F934F935F936F9328
S11303D07F938F939F93AF93BF93EF93FF932EDFFE
S11303E0FF91EF91BF91AF919F918F917F916F9109
S11303F05F914F913F912F910F900BBE0F900FBEC5
S11304000F901F901895CF93DF93FC01709620E016
S113041030E0C62FD0E0DE01022E02C0B595A795CC
S11304200A94E2F7A0FD50832F5F3F4F31962830A6
S1130430310589F740FF0AC041FF03C0FC01658311
S113044002C0FC016683FC01618302C0FC0162837B
S1130450DF91CF91089543E050E061E080EE97E0B2
S1130460D2DF43E050E062E080EE97E0CCDF43E08F
S113047050E060E180E696E0C6DF41E050E460E2EF
S113048080E696E0C0DF40E05BE160E280E896E071
S1130490BADF40E05BE162E080EA96E0B4DF40E08E
S11304A05BE164E080EA96E0AEDF43E050E062E0C6
S11304B080E696E0A8DF43E050E068E080E696E05E
S11304C0A2DF43E050E068E080EA96E09CDF43E08E
S11304D050E061E080E696E096DF43E050E068E0BB
S11304E080E096E090DF41E050E060E180E896E053
S11304F08ADF43E050E062E080E696E084DF43E098
S113050050E068E080E696E07EDF40E050E064E0A2
S113051080E696E078DF43E050E060E180EA96E030
S113052072DF40E050E061E080E096E06CDF40E0A4
S113053050E064E080E096E066DF40E050E062E096
S113054080E296E060DF43E050E068E080E496E01B
S11305505ADF40E050E064E080E496E054DF43E09A
S113056050E068E080E696E04EDF40E050E064E072
S113057080E696E048DF43E050E068E080E896E0FB
S113058042DF40E050E064E080E896E03CCF08952C
S10F059062DF80E090E00895F894FFCF53
S9030000FC
